:1000000066C100007FC100007DC100007BC100000F
:1000100079C1000077C1000075C1000073C1000004
:1000200071C100006FC100006DC100006BC1000014
:1000300069C1000067C1000065C1000063C1000024
:1000400061C100005FC100005DC100005BC1000034
:1000500059C1000057C1000055C1000053C1000044
:1000600051C100004FC100008601010006010100DE
:1000700006010000000000004A5441474943452062
:100080006D6B49490065736172454D564E4003A042
:1000900001CF0067003300220010008A000C000826
:1000A00000030001000F000700030001000C00091D
:1000B0000007000600040003000200020001000027
:1000C000000000000020676F72504D564E000089FE
:1000D0001112239B322446AD573665BF74488CC13C
:1000E0009D5AAFD3BE6CCAE5DB7EE9F7F8811008F4
:1000F0000193331A22A5562C47B7753E64C99C401C
:100100008DDBBF52AEEDDA64CBFFF976E802218BCE
:1001100030100299132667AF763444BD554AADC3FB
:10012000BC588ED19F6EEBE7FA7CC8F5D983310AB3
:100130002091121803A7772E66B5543C45CBBD42DB
:10014000ACD99E508FEFFB66EAFDD874C904428D8E
:100150005316619F702004A9153227BB364CCEC5BB
:10016000DF5EEDD7FC6888E1997AABF3BA85520C73
:100170004397711E60A1142805B3373A26CDDE449B
:10018000CFDFFD56ECE9986089FBBB72AA06638F4E
:100190007214409D512225AB343006B9174EEFC77B
:1001A000FE5CCCD5DD6AA9E3B8788AF19B87730E33
:1001B0006295501C41A3352A24B1163807CFFF465B
:1001C000EEDDDC54CDEBB962A8F99A708B0884811E
:1001D000951AA793B62CC2A5D33EE1B7F04008C943
:1001E00019522BDB3A644EED5F766DFF7C899400EB
:1001F000859BB712A6ADD224C3BFF136E0C1184823
:1002000009D33B5A2AE55E6C4FF77D7E6C0AA583C5
:10021000B4188691972EE3A7F23CC0B5D14229CB02
:1002200038500AD91B666FEF7E744CFD5D8BB502AA
:10023000A499961087AFF326E2BDD034C1C3394AE2
:1002400028D11A580BE77F6E6EF55C7C4D0CC68585
:10025000D71EE597F42880A1913AA3B3B2444ACDC2
:100260005B5669DF78600CE91D722FFB3E8DD6046A
:10027000C79FF516E4A9902081BBB332A2C55A4CA2
:100280004BD7795E68E11C680DF33F7A2E0EE78745
:10029000F61CC495D52AA1A3B03882B193466BCF82
:1002A0007A5448DD59622DEB3C700EF91F8FF7062A
:1002B000E69DD414C5ABB122A0B9923083C77B4E62
:1002C0006AD5585C49E33D6A2CF11E780F00112471
:1002D0001FBECFEFD8E0DEBFCDBF11E0A0E0B1E0A0
:1002E000EEE9FDE002C005900D92A230B107D9F70A
:1002F00023E0A2E0B1E001C01D92AA3CB207E1F701
:10030000EBD14BC57DCEE8E0F1E022E030E0338375
:10031000228395EA968387830895E82FE627F0E005
:10032000EE0FFF1FE353FF4F25913491872F822754
:10033000932F0895569A0BB038E724E22A95F1F7E7
:100340005E9801F025E12A95F1F780FB06F8879584
:100350003041000087F90BB8A8F727E12A95F1F79B
:1003600030FB06F80BB828E12A95F1F75E9A2CE0ED
:100370002A95F1F75698089556985E981092850040
:1003800010928400A1E8B0E084E08C93E6E3F0E012
:1003900080E82081247079F44E99FBCF2EE02A95D5
:1003A000F1F726E12150F1F74E9908948795C8F7A7
:1003B00020E32A95F1F75E9A1C92089585E5BADF4D
:1003C00084E0B8DF82E0B6DF80E1B4DFD5CF85E539
:1003D000B1DF8BE8AFDFD0CFCF93C82F85E5AADFA1
:1003E00084E6A8DF8C2FA6DFCF91C6CFCF9385E51B
:1003F000A1DF89E29FDFC0DFC82FBEDF982F8C2FDF
:10040000CF9108951F93CF93DF93162FD72FC82F27
:1004100085E590DF8AE68EDF812F8CDF8D2F8ADFE6
:100420008C2F88DFDF91CF911F91A6CFCF93DF93E1
:10043000D82FC92F85E57EDF89E67CDF8D2F7ADF17
:100440008C2F78DFDF91CF9197CF0F931F93CF93AE
:10045000DF938B01D82FC42F85E56CDF88E46ADF3A
:10046000802F68DF812F66DF8D2F64DF85DF8C2F83
:1004700061DFDF91CF911F910F917ECF1F93CF93BB
:10048000DF93182FD92FC62F85E554DF84E452DF80
:10049000812F50DF8D2F4EDF6FDF8C2F4BDFDF91F1
:1004A000CF911F9169CFCF93C82F85E543DF80EAB5
:1004B00041DF8C2FCF913ECFCF93DF93D82FC62F24
:1004C00085E538DF80EC8D0F35DF8C2FDF91CF9104
:1004D00031CFCF93DF9360E088E0EEDFC0E0D6E07D
:1004E00076DF8E7039F4C23029F0B29BF9CFD6BBDB
:1004F000CF5FF6CF81E0C23008F080E0DF91CF918E
:10050000089569E588E0D8DFE4CFE0ECF0E0808191
:1005100087FFFDCF8091C6000895E0ECF0E0908168
:1005200095FFFDCF9081906490838093C6000895DD
:10053000FF920F931F93CF93DF93D82FC62FFF24E3
:10054000FA94F80E53DF8C0139DF8370E9F7C801A4
:100550006DDF6EE082E0B0DF8F2DA5DFEC2FF0E0E5
:10056000E85FFE4F168185E5E5DE84E6E3DE812F58
:10057000E1DEDC0FCF5FCD1739F0EC2FF0E0E85F64
:10058000FE4F8681D7DEF6CF66E082E095DF8C2FC6
:10059000DF91CF911F910F91FF9008950FDF83702E
:1005A000E9F70895482F60E070E180E090E04DCFDA
:1005B00085E5C0DE88E0BEDE82E0BCDE80E1BADE3A
:1005C00080E0B8DED9DE837099F708951F93CF934A
:1005D000DF93EC0185E5AEDE80EEACDE18E0FE01D7
:1005E0008491A8DE21961150D1F7DF91CF911F9110
:1005F0000895E8E0F1E021E030E033832283868350
:10060000089564E083E058DF809107018E7F809336
:10061000070180E8EECFDBDE8F7E883029F082385C
:1006200081F42D988BEA0AC080910001823039F460
:10063000BFDF67DF2D988823A9F380E8DACFAEDF2C
:10064000F8CF81E060CECF93C2DEC82FCF7EC1321B
:1006500041F020F4C830C1F08C2F0EC08F7C82385E
:10066000D9F74FDF811103C08BEACF91C2CFAFDE44
:1006700080FF04C08C2F8160CF9145CE85EC90E047
:10068000A5DF3FDF882381F380910001813039F4B9
:1006900064E080E090E1F2DE2D9A80E8E6CF88DF2A
:1006A00040E062E070E180E090E0CFDE81E07ADF60
:1006B000F3CF569A5E9829E989E191E02150804074
:1006C0009040E1F700005E9A8FEF9FE10197F1F70C
:1006D00000C000005698089500D000D0CDB7DEB716
:1006E00080E48BB9259A8AE698E190938B008093F9
:1006F0008A0082E08093C00087E690E09093C50076
:100700008093C40088E18093C1005EE0252E51E013
:10071000352E08E011E0F9DE8B31E9F76FEF7FEF5E
:10072000FCDD5C0148E0C42E41E0D42E7601EDDE14
:10073000D7018D937D01B501F0DD5C01E214F30476
:10074000B1F7F801828193818D3B924020F7DDDE85
:100750008E3009F7B501E1DD7C013EE0632E31E02A
:10076000732E5301912C812CD80112968D919C915E
:100770008816990658F4C9DEF50181935F01B70127
:10078000CCDD7C01FFEF8F1A9F0AEECFBEDEB82EC4
:10079000BCDE982F8B2DE816F90609F0BCCF8091AE
:1007A0000E01883009F422C1D8F4833009F4ABC0BB
:1007B00058F4813009F45DC0823009F4F1C0882317
:1007C00009F403C180EAA9C0843009F482C18530EC
:1007D000C9F7FDDD883009F436C181E094DD66C0DB
:1007E000843149F050F48C3009F403C18F3009F49E
:1007F000EAC08B3039F727DF59C0853109F4F4C0DE
:10080000843301F720910F01263009F4DCC008F091
:1008100095C2222309F496C28CEF820F823090F6A3
:10082000F801828590E0B0E0A0E0DC0199278827FC
:100830003085832B418550E0542F442770E060E0E1
:100840004C015D01842A952AA62AB72A89829A82B8
:10085000AB82BC8280910001813009F07EC22730DA
:1008600009F4B1C09BDE6FEF89819A8107DE62E0F7
:10087000ACC182E08093020184E0809306012DE107
:10088000822E912C90920B0180920A01E8E6F0E012
:10089000C6018396D30124912D9331968A179B0725
:1008A000D1F780910701826080930701B29B02C05B
:1008B0008BEA9FDE8BE131DE6FEF7FEF2EDD7C0177
:1008C000D6018D916D0129DEB70127DD7C01C214AF
:1008D000D304B1F78EE021DEB7011FDD6C01F12CEE
:1008E000E12CF80182819381E816F90608F03CC2F8
:1008F000D3018D913D0111DEB6010FDD6C01BFEF1B
:10090000EB1AFB0AEECF80910F018330A9F138F486
:100910008130A1F08230E1F081EA6BDEC7CF853013
:10092000B1F18630C9F783E090E090930B0180939A
:100930000A0188E880930F0183E107C093E0A92EA4
:10094000B12CB0920B01A0920A01809310010FC04C
:1009500025E030E030930B0120930A0110920F0143
:1009600086E080931001109211018093120181E8BA
:10097000D80116968C939ACF42E050E050930B0129
:1009800040930A018091020180930F01F0CF62E051
:1009900070E070930B0160930A0180910601F4CF1F
:1009A00090910F0180911001933059F0953009F02A
:1009B000B3CF9FEF980F9C3108F0AECF8093060124
:1009C00002C08093020180E8A8CF84E080930601F2
:1009D0008091070180FF02C01EDE13DE80910701B7
:1009E0008D7F80930701EFCF16DE60CF14DE09DE26
:1009F0005DCFE3E0F2E0808190E0982F8827A2E0CD
:100A0000B2E02C91820F911D909305018093040117
:100A1000E4E0F2E08081809303014BDE4ADE66E091
:100A200082E04ADD80910401909105018F3F91059C
:100A300009F038F481E08093000180910701816022
:100A4000D0CF82E0F8CFE0901001F09011018091BA
:100A50000001A3E0BA2E813011F4F2E0BF2E85E54B
:100A600069DC87E68B0D66DCD8011C968C9162DC14
:100A7000F80185855FDCF3E0BF1204C0D8011E9643
:100A80008C9158DC79DC8FEF8E0D0DDD85E552DC25
:100A900084E250DC71DCF801878370E1872E71E01D
:100AA000972EE2E0AE2EB12CEA14FB0440F064DC99
:100AB000D4018D934D01BFEFAB1ABB0AF5CFEFEF19
:100AC000EE1AFE0AD8011396FC92EE92129782E873
:100AD00050CF7DDC883009F080CE80910F01E0900E
:100AE0001001F0901101809000018982282D2130A1
:100AF00009F077C0B0901401A090150190E4980F10
:100B0000923008F03CC0A4E0B1E05C908B2D9A2DAF
:100B10008DDCB1948FEF850DB822BE141F0411F047
:100B200008F0BE2C6AE0962EBB2071F06AE08B2D97
:100B3000FFDC982EEB18F10859DC5C01698180E03C
:100B400090E19CDCC50172DCA52CB12CE114F10410
:100B500009F439CF692DEA14FB0408F43AC0852D55
:100B6000E7DC982EEA18FB0841DC882E492E6981C3
:100B700080E090E183DC882D942D58DCE7CF509005
:100B80000301843B38F4823B90F4823241F5F3E078
:100B9000F983BCCF823C28F4803C08F123E0298310
:100BA000B5CF845C8230D8F4B3E0B983AFCFF8011D
:100BB000F08886E090E13ADC8F2D0EDC80E00CDCE2
:100BC0008B2D0ADC8A2D08DC67E080E090E156DCA2
:100BD000FACE8E2DADDC982EF12CE12CC5CF82EA19
:100BE0009CCE823C50F4803C60F4823219F0825BEF
:100BF0008230A8F743E1B42E06C0843CD9F3853C8B
:100C000071F752E0B52ED8011E968C9190E0B0E0BD
:100C1000A0E0DC0199278827F8012485AC01BD01FB
:100C2000422B49835A836B837C83458550E0542F44
:100C3000442770E060E089819A81AB81BC81842B7C
:100C4000952BA62BB72B89839A83AB83BC83B0DC0F
:100C500081E0A8DC8B2DA6DC91E0E916F10449F4D3
:100C6000D80150964C9169817A818B819C81EDDB12
:100C7000AACEB4E0EB16F10418F0E2E0BE16E1F003
:100C8000EA948B2D8FDC69817A818B819C81BADB20
:100C90008E2D09DCD80150968C919EDBF9E1AF2EA8
:100CA000F1E0BF2EEE2009F48ECEF50181915F01B7
:100CB00041DB62DBEA94F6CFC701969587959924CC
:100CC0009A94980E69817A818B819C819BDB6EE07E
:100CD00082E0F2DB892DE7DBD8015196BC90519779
:100CE0005096AC9085E526DB85E624DB8A2D22DB59
:100CF0008B2D20DB5601892CB2E0AB0EB11C882075
:100D000049F0F501808916DBD50151968C9112DBF3
:100D10008A94F2CFE92DF0E03696EE0FFF1FE0FE49
:100D200009C0E85FFE4FF68085E504DB84E602DB60
:100D30008F2D00DB66E082E0BFDB45CE273009F473
:100D40006FCD40CD85E890E041DC69E588E0B4DB1B
:100D5000C0DB811150CD8BEAE0CD2ADC81E022DCC2
:100D600088E020DC4FEF7FCF8C2DD7DB8D2DD5DBBE
:100D7000E0ECF0E0808186FFFBCFE0910601E150DE
:100D8000FF0BEE0FFF1FE357FF4F85919491A4ECEB
:0E0D9000B0E011969C938E93BECCF894FFCFEA
:020D9E00010052
:00000001FF
